:060000000A128A110C280F
:10000800FE00030EF5000A08F6000A128A112C28D1
:100018000A128A110F280A128A11B3200A128A11A9
:10002800F0000A128A11B4200A128A11F1000A1289
:100038008A11B5200A128A11F2000A128A11B62012
:100048000A128A11F300F70183010A128A11AA28F9
:10005800831203138C1D3128322835287708930022
:100068008C110B1C382839286B28F301F30AF1018D
:10007800F10A0618402841284628F3017308F400BD
:100088007408F2007208730603194B284C28552887
:100098007308F4007408F2000130F4007408F707DC
:1000A8005E288618582859285E28F1017108F4003E
:1000B8007408F000700871060319632864286A2818
:1000C8007108F4007408F0000130F7020B1076088C
:1000D8008A00750E8300FE0E7E0E09008316031734
:1000E80088018901203083160313850083120313C6
:1000F8008501831603130F088F3940388F000F14BA
:10010800183087008312031387011408F039043864
:1001180094001412941683160313141794130614D8
:10012800861483120313860183160313811315148F
:100138009514831203138C11831603138C158B17D4
:100148000B178B15161496140B1008000A128A1137
:1001580072200A128A11AF280A128A110C28013457
:06016800013401340134F2
:08400000FF3FFF3FFF3FFF3FC0
:04400E00D420FF3F7C
:00000001FF
